:020000040800F2
:1000000000900020B94800085D4800085F480008DB
:1000100000000000000000000000000000000000E0
:10002000000000000000000000000000D5310008C2
:100030000000000000000000A1320008E5320008C6
:100040000949000809490008094900080949000848
:100050000949000809490008094900080949000838
:1000600009490008094900080949000861480008D1
:1000700009490008094900080949000879480008A9
:100080000949000809490008094900080949000808
:100090000949000809490008094900088948000879
:1000A00009490008094900080949000809490008E8
:0C00B00009490008094900080949000836
:1000C00010B5064C2378002B07D1054B002B02D02E
:1000D000044800E000BF0123237010BD1000002081
:1000E0000000000078490008044B10B5002B03D035
:1000F0000349044800E000BF10BDC04600000000F6
:10010000140000207849000802B4714649084900EB
:10011000095C49008E4402BC7047C04603B4714676
:10012000490840004900095A49008E4403BC704701
:10013000002243088B4274D303098B425FD3030A26
:100140008B4244D3030B8B4228D3030C8B420DD339
:10015000FF22090212BA030C8B4202D312120902C7
:1001600065D0030B8B4219D300E0090AC30B8B4205
:1001700001D3CB03C01A5241830B8B4201D38B03B3
:10018000C01A5241430B8B4201D34B03C01A524158
:10019000030B8B4201D30B03C01A5241C30A8B429B
:1001A00001D3CB02C01A5241830A8B4201D38B0286
:1001B000C01A5241430A8B4201D34B02C01A52412A
:1001C000030A8B4201D30B02C01A5241CDD2C3099C
:1001D0008B4201D3CB01C01A524183098B4201D318
:1001E0008B01C01A524143098B4201D34B01C01A03
:1001F000524103098B4201D30B01C01A5241C3087B
:100200008B4201D3CB00C01A524183088B4201D3E9
:100210008B00C01A524143088B4201D34B00C01AD5
:100220005241411A00D20146524110467047FFE741
:1002300001B5002000F0F0F802BDC0460029F7D05B
:1002400076E7704703460B437FD4002243088B4276
:1002500074D303098B425FD3030A8B4244D3030B4D
:100260008B4228D3030C8B420DD3FF22090212BA12
:10027000030C8B4202D31212090265D0030B8B428E
:1002800019D300E0090AC30B8B4201D3CB03C01A78
:100290005241830B8B4201D38B03C01A5241430B53
:1002A0008B4201D34B03C01A5241030B8B4201D343
:1002B0000B03C01A5241C30A8B4201D3CB02C01AAE
:1002C0005241830A8B4201D38B02C01A5241430A26
:1002D0008B4201D34B02C01A5241030A8B4201D315
:1002E0000B02C01A5241CDD2C3098B4201D3CB01BC
:1002F000C01A524183098B4201D38B01C01A52416B
:1003000043098B4201D34B01C01A524103098B426E
:1003100001D30B01C01A5241C3088B4201D3CB0059
:10032000C01A524183088B4201D38B00C01A52413C
:1003300043088B4201D34B00C01A5241411A00D2EC
:1003400001465241104670475DE0CA0F00D0494255
:10035000031000D34042534000229C4603098B42C5
:100360002DD3030A8B4212D3FC22890112BA030A4D
:100370008B420CD3890192118B4208D389019211CF
:100380008B4204D389013AD0921100E08909C30954
:100390008B4201D3CB01C01A524183098B4201D356
:1003A0008B01C01A524143098B4201D34B01C01A41
:1003B000524103098B4201D30B01C01A5241C308B9
:1003C0008B4201D3CB00C01A524183088B4201D328
:1003D0008B00C01A5241D9D243088B4201D34B0043
:1003E000C01A5241411A00D20146634652415B1085
:1003F000104601D34042002B00D549427047634666
:100400005B1000D3404201B5002000F005F802BDAA
:100410000029F8D016E770477047C046002B11D16D
:10042000002A0FD1002900D1002802D00021C943A1
:10043000081C07B4024802A14018029003BDC04640
:10044000D9FFFFFF03B4684601B5029800F006F833
:10045000019B9E4602B00CBC7047C046F0B55746A3
:100460004E464546DE46E0B5040083B00D00924698
:1004700099468B422FD82CD04946504600F0AEF812
:1004800029000600200000F0A9F8331A9846203B06
:100490009B4600D574E053465A4693401F0053468E
:1004A000424693401E00AF4229D826D05B46A41B8B
:1004B000BD41002B00DA79E0002200230092019375
:1004C00001235A46934001930123424693400093EF
:1004D00019E08242D0D900220023009201930C9BA4
:1004E000002B01D01C605D600098019903B03CBCFA
:1004F00090469946A246AB46F0BDA342D6D900220B
:100500000023009201934346002BE8D0FB077208BA
:100510001A4346467B080EE0AB4201D1A2420CD8FA
:10052000A41A9D41012024196D410021013E241887
:100530004D41002E06D0AB42EED9013E24196D414B
:10054000002EF8D15B460098019900196941002BF3
:1005500022DB2B005A46D3402A004446E2401C00CE
:100560005B461500002B2CDB26009E403300260046
:100570004746BE403200801A994100900191AEE793
:10058000424620239B1A5246DA40414613004A460F
:100590008A4017001F4382E7424620239B1A2A0005
:1005A00046469A402300F3401343D5E742462023B2
:1005B00000219B1A0022009101920122DA4001924F
:1005C00082E74246202326009B1ADE402F00B446D5
:1005D000974066463B003343C9E7C04610B5002943
:1005E00003D100F007F8203002E0081C00F002F808
:1005F00010BDC0461C2101231B04984201D3000CEE
:1006000010391B0A984201D3000A08391B09984285
:1006100001D30009043902A2105C40187047C0469B
:1006200004030202010101010000000000000000BB
:100630008023084A5B00116810B50B43136000204B
:1006400004F0D0F8041E03D104F00AF8200010BD15
:100650000124FBE700200240034A044913680968AB
:100660005B1813607047C046700D0020000000202A
:10067000014B18687047C046700D002070B58901A5
:10068000002814DA0F23C0B20340083B114A9B082C
:100690009B009B18032210409040FC321500114033
:1006A00085408140DC69AC432143D96170BD03259D
:1006B00083082840A840FC352E00074A9B009B1861
:1006C000C02286402940814092009C58B443214377
:1006D0009950EBE700ED00E000E100E01F23184037
:1006E0001E3B8340014A13607047C04600E100E0B2
:1006F000F0B5846CC56C6560046D002C02D0446D4F
:10070000856D65601C25046C084E25400124AC40B5
:1007100077683C437460046863608368102B02D17F
:10072000A260E160F0BDA160E260FBE70000024072
:1007300010B50400007814210838FFF7F9FC236C89
:10074000064A9B089B189B006364054BA3641C230B
:1007500018401B3B8340E36410BDC046008200107C
:100760008008024070B504000120002C48D02568A4
:10077000264B1421E818FFF7DBFC02238000A61D9E
:100780002064F3772B68224AE16813402B60A3684A
:100790002A680B43216920000B4361690B43A1695F
:1007A0000B43E1690B43216A0B4313432B60FFF7B3
:1007B000BFFF8023A268DB019A4201D1002363605E
:1007C0006268616CD3B20B60E06CA16C013A486066
:1007D000032A16D80F4A104899180322013B1340E8
:1007E000023A9A40A26513000022890021656065E3
:1007F0000A60436000200123E0630534F377E0776B
:1008000070BD002323656365A365F3E7F8FFFDBFB3
:100810000F80FFFF3F82001040090240F8B5461DDF
:10082000F57F04000220012D30D00125A71DF577AA
:10083000FD7FEDB2012D27D1F87700202768E06316
:100840003868A84338602000FFF752FF226B236806
:10085000002A1CD00E2219680A431A60626C1168C3
:10086000C90304D580211068490001431160226D3D
:10087000002A04D080211068490001431160012240
:10088000002019680A431A600023F377F8BD042199
:100890001A688A431A6019680A22DDE7F8B501234D
:1008A000411DCB77841DE27F022A03D00422C2635C
:1008B0001800F8BD0E2602681568B5431560156866
:1008C000466C9D4315603268114D2A4032601C22EF
:1008D000AC46056C0F4E2A40934077683B437360EB
:1008E000C26C836C5A60036D002B06D065461A6893
:1008F0002A401A60436D826D5A600123E377002419
:10090000826BCC771300A242D2D090472300CFE76E
:10091000FFFEFFFF00000240F8B51C210427046C15
:10092000264B21403C008C401E680268156834420A
:100930000FD03D420DD01168890602D41168B94329
:1009400011605A6814435C60036B002B1BD09847FE
:1009500019E002273C008C40344215D03D4213D0B0
:100960001168890606D40A251168A943116001217E
:10097000821DD1775A68144300225C60431DDA77E8
:10098000C36A9342E3D1F8BD082427008F403E425A
:10099000F9D02542F7D00E251468AC43146001222B
:1009A00015008D4029005C6821435960831DC26396
:1009B000DA770022431DDA77436BE2E7000002405A
:1009C000F0B50B6885B0029300230191029ADA40DA
:1009D00001D105B0F0BD01229A4003920399029A19
:1009E0000A40009200D185E0019A10215268160059
:1009F0008E43022E0ED107251D40AD000139A940BE
:100A0000DC08A4000419276A8F4301990969A940E9
:100A10000F43276203245F00BC40E4430568013EA6
:100A20002540AC4603251540BD4061460D43056099
:100A3000012E0FD801998668CD682640BD40354308
:100A400085604668039915098E4301210D409D403C
:100A500035434560C56801992C408D688021BD40B3
:100A600049052C43C4600A4244D003260F2422497E
:100A70009D081E40AD00F6006D18B440A0212F6EF9
:100A8000C905A743002488420CD01C490134884280
:100A900008D01B490134884204D01A4903348842E3
:100AA00000D1023CB44000993C430E002C66164C29
:100AB000CD43E76F3E43D10301D43E002E40E667AD
:100AC000124E009FF46F2743910301D42C4027005E
:100AD000094CF7672768009E3E43D10201D43E00CF
:100AE0002E4026606668009F3743920201D42E4054
:100AF00037006760013369E70018024000040050C6
:100B000000080050000C0050041802400818024071
:100B1000002A01D0816170478162FCE703689A690D
:100B2000920701D500229A6201229969114202D1ED
:100B300099690A439A61704770B5049E89053343E9
:100B4000890D194380230468DB00700D1840044BA5
:100B5000656812041843854311432943616070BDE1
:100B6000FF63FF0310B5436B164C0422A34202D06F
:100B7000154CA34214D10023114200D0B8331122E6
:100B80000A40112A01D17F321343122211409142AF
:100B900001D14E321343026811680B43136010BD3C
:100BA0000023114200D0B833CA0701D5F222134303
:100BB0008A0701D5F4221343122211409142EAD14F
:100BC0000E32E7E7C1160008E115000810B5002352
:100BD000CA0708D5030041331A7828231A401A336C
:100BE000282A00D0B0338A0708D5020028244132D1
:100BF00012782240A24216D1442213434A0701D55B
:100C0000B822134311220A40112A01D17F32134323
:100C100012221140914201D14E32134301680A68F9
:100C20009A430A6010BDF422E7E7000070B50400A3
:100C30000120002C3FD0250041352B78DBB2002B62
:100C400005D1220040321370200003F025FD24233B
:100C500001212B702368E0681A68A6688A431A602D
:100C600061681A4A0A401A619968194A11409960E4
:100C7000012821D180210902314399605868154922
:100C800001435960D96800200A40DA60616922692D
:100C90000A43A16909020A43DA60216AE2690A4348
:100CA0001A60012219680A431A60202360642B70BD
:100CB00020634234207070BD842109023143996061
:100CC0000228DBD1802109015960D7E7FFFFFFF03F
:100CD000FF7FFFFF00800002F0B587B004000591A0
:100CE0004130944602780225202A53D1802122687F
:100CF0000902966931404DD1260040363778012FE0
:100D000048D0013D3570203505700130039010202A
:100D1000039D2870616461466385374B6162E362BD
:100D2000364B6363638DFF2B37D9FF2323858023E5
:100D30005B042700258D04934037002D4BD0A06B1A
:100D400000282FD000262E4B0663C3622D4B8663EE
:100D5000436328322B006146FFF760FD0500B04277
:100D60002DD1228D284BD2B200930599049B2000EF
:100D7000FFF7E2FE638D228D11219B1A9BB26385E2
:100D800020003D70FFF7EEFE80232268DB01116832
:100D90000B431360280007B0F0BD638D23858023CB
:100DA0009B04C6E72300202241331A70039B18706E
:100DB0008023626C1343636438700125EAE72300E3
:100DC000202241331A70039B1E701023626C134360
:100DD00063643E70F1E70D4B059963630A4B200095
:100DE000009380232A009B04FFF7A6FE3D7001219B
:100DF0002000FFF7B7FECDE70000FFFFC116000897
:100E0000E9170008D117000800200080B514000879
:100E1000F0B5060087B0059104934136317804009F
:100E20000225202954D1016880208F6900023840B2
:100E30004ED1270040373B78012B49D0013D3D7012
:100E4000213535702500423503951025039B1D7013
:100E50006B461B8A60646385364B6262E362364B85
:100E60006363638DFF2B36D9FF23238580235B04C7
:100E70002700258D04934037002D4AD0E06B0028D1
:100E80002ED000262D4B0663C3622D4B8663436331
:100E900024312B00FFF7C2FC0500B0422DD1228D7A
:100EA000284BD2B200930599049B2000FFF744FE23
:100EB000638D228D11219B1A9BB2638520003D70AA
:100EC000FFF750FE802322681B0211680B4313605A
:100ED000280007B0F0BD638D238580239B04C7E7FE
:100EE0002300202241331A70039B18708023626C08
:100EF0001343636438700125EAE72300202241335D
:100F00001A70039B1E701023626C134363643E705F
:100F1000F1E70D4B059963630A4B20000093802392
:100F20002A009B04FFF708FE3D7001212000FFF717
:100F300019FECDE70000FFFFC116000839180008B0
:100F4000D117000800240080B5140008036810B50C
:100F500099691A68436B002B00D0984710BD704701
:100F60007047030070B500252022060042331D7033
:100F7000013B1978040040361A7021290AD1112347
:100F8000456303632039FFF721FE35702000FFF72A
:100F9000E6FF70BD1223456303630221FFF716FECF
:100FA00035702000FFF7DCFFF3E770477047030060
:100FB00070B5002542331D70013B1A780400292AC0
:100FC0000DD1013A1A70212301210363FFF7FEFDC1
:100FD000230040331D702000FFF7E7FF70BD1A7833
:100FE0002A2AFBD1023A1A70222302210363FFF757
:100FF000EDFD230040331D702000FFF7D7FFEDE724
:1010000070470300F7B541331A78282304001A40CB
:101010000368282A37D1FE279D699E699A68D96896
:10102000ED030191C168360CED0F3E40022921D13C
:101030009205920DD1094E4006210E4010D1816CCF
:1010400001318164816C022909D106318664D9613C
:10105000030040331E7029002000FFF7D1FFF7BDC9
:101060000421FFF7B3FD2300002240331A70019AD8
:101070003A40F0E70421FFF7A9FD230000224033A6
:101080001A703200E7E70822DA6100234034237047
:10109000E5E77047184B10B5C362002302000363F5
:1010A0000400202041321070537004226363114207
:1010B00012D02368616A5B6A0B70636A01336362F2
:1010C000238D002B08D0013B2385638D013B9BB210
:1010D0006385636C1A43626407212000FFF776FD85
:1010E000102223682000DA612300002240331A70A6
:1010F000FFF7CFFF10BDC0460000FFFF70477047ED
:101100007047704770B50200050000264232413535
:101110002B7816702F4A283BC2624685426C040029
:1011200011434164022B22D80321FFF74FFD2823EE
:101130002B70294B2663802263632368D2011968D0
:1011400011401A681ED02549A06B0A401A60002879
:101150000CD0234B00228363230040331A70FFF727
:101160009DFB002802D0A06B836B984770BD0721C0
:10117000FFF72CFD2B78602B01D020232B70002350
:101180002363D8E780200002024011D01A68154876
:101190000240E06B1A600028E8D0114B8363230003
:1011A00040331970FFF77AFB0028DFD0E06BDBE7F4
:1011B000230029784033602906D140392970200066
:1011C0001A70FFF79EFFD1E71A702000FFF798FF13
:1011D000CCE7C0460000FFFFDD120008FFBFFFFFA5
:1011E000E1180008FF7FFFFF2022F8B504008025EA
:1011F00003680F001E680721DA61FFF7E7FC236828
:101200002D025A6833492A435A605A6820000A401E
:101210005A60FFF783FC730438D5A36B002B03D00F
:101220001B685B689BB2638504231F4210D09F43F9
:101230002368626A5B6A1370636A01336362238D99
:10124000002B05D0013B2385638D013B9BB2638559
:10125000638D002B03D00423626C1343636422006C
:1012600000232500423223631370666C63634135AB
:101270009E420FD0616C2000FFF744FF2B78282B93
:1012800003D139002000FFF705FFF8BD2E42CBD077
:10129000E36BC3E72700E36A0F4A403793420BD062
:1012A0002000FFF784FE0C4B2000E36220232B700C
:1012B0003E70FFF7EEFEE8E720232A7820002B702F
:1012C0003E70222A02D1FFF771FEDEE7FFF76DFEC6
:1012D000DBE7C04600E800FE0000FFFFF8B50700AE
:1012E000403716003A780400C36A0D000220012A34
:1012F00021D001223A700F3211423BD0164239D030
:10130000618D002928D1220041321178282913D17A
:10131000802189048B420FD129002000FFF7BAFEFB
:1013200020231D4205D01E4203D029002000FFF7D4
:101330005BFF00203870F8BD102110782268D16161
:101340002928EDD12C488342EAD02000FFF7E6FBA4
:101350002000FFF72CFEE3E72168CA610422616CDC
:101360000A436264254A1342DAD1616C2000FFF718
:10137000C9FED5E7042215421AD0164218D0618D55
:1013800000290ED095432268616A526A0A70626A27
:1013900001326262228D013A2285628D013A92B257
:1013A0006285628D002ABBD1134A9342D0D1B7E740
:1013B0000822154205D0164203D02000FFF721FE77
:1013C000AEE702221542ABD01642A9D0628D002AA8
:1013D0000DD0636A22681978013391626362638D6C
:1013E000013B9BB26385238D013B238598E7034A2C
:1013F000134200D094E7ABE70000FFFFFFFFFFFEC2
:101400002022036810B5DA615A68040027480240B8
:101410005A60002222636263254AE262102211426E
:1014200004D0DA610423626C134363642000FFF785
:1014300075FB03212000FFF7C9FB22004132636CDA
:101440001178602901D0002B04D0616C2000FFF7D7
:1014500059FE10BD1178212912D1013911702200D5
:10146000210042321078403113700B70402803D1B4
:101470002000FFF743FEECE72000FFF770FDE8E7F0
:1014800011782229E5D1023911702200210042325F
:101490001078403113700B70402803D12000FFF703
:1014A0002EFED6E72000FFF75BFDD2E700E800FE46
:1014B0000000FFFFF7B5070040373B7804000D0040
:1014C00016000220012B1AD001233B700F33194262
:1014D00016D01A4214D022682000D361626C0C3BF3
:1014E00013436364FFF71AFB20231D4205D01E42FD
:1014F00003D029002000FFF783FF00203870FEBDD5
:1015000004231D4211D01E420FD09D432368626AFE
:101510005B6A1370636A01336362238D013B238529
:10152000638D013B9BB26385DEE702231D4206D03B
:101530001E4204D0636A226819789162EBE7402367
:101540002A0633D51E4231D0628D2368002A21D06D
:10155000208D00281ED15968638D8905890DFF2BC8
:1015600008D9FF228023228500905B042000FFF72A
:10157000E3FAB9E7628DE36A92B29C46174B228583
:10158000D2B29C4502D0E36A0090EFE7802300903E
:101590009B04EBE75B689B0103D42000FFF7E1FCB1
:1015A000A2E740212000FFF7ADFD9DE71D429BD043
:1015B0001E4200D198E7638D002BF2D123685A6850
:1015C000920100D590E7E16A044A9142E5D1802278
:1015D0005968D2010A435A6086E7C0460000FFFFFF
:1015E000F8B5050040352B780400C66A0220012BAF
:1015F0002DD001232B700F3319424BD01A4249D002
:10160000C0200002024242D0E06B031E06D000233D
:10161000170403D503685B6858424341A06B002858
:1016200005D0520403D502685268002A01D0012B6C
:101630001ED1230041331A78282A09D1802292042E
:10164000964205D12000FFF725FD00202870F8BD47
:10165000102219782368DA612929F6D116498E42B9
:10166000F3D02000FFF75AFA2000FFF7A0FCECE7C8
:1016700010222368DA610423626C134363640F4B06
:101680001E42E2D1616C2000FFF73CFDDDE72268DD
:10169000D361DAE70823194205D01A4203D02000AB
:1016A000FFF7AFFCD1E720231942CED01A42CCD0AD
:1016B0002000FFF799FDC8E70000FFFFFFFFFFFED6
:1016C00037B5050040352B7804000220012B15D0DA
:1016D00001232B700F33194211D01A420FD0226808
:1016E0002000D361626C0C3B134363641221FFF74B
:1016F00039FA2000FFF712FA002028703EBD40237F
:10170000080644D51A4242D02268116899431160F4
:10171000638D002B2FD05168638D8905890DFF2BB8
:101720001BD9FF23238580235B040020228D00909A
:10173000D2B22000FFF700FA638D228D9B1A9BB274
:101740006385230041331A7823681968222A0FD150
:10175000802212020A431A60CEE7638DE26A238573
:101760001A4B9A4201D0E36ADFE780239B04DCE74F
:101770008022D201EEE753689B0103D42000FFF7DB
:10178000F0FBB9E740212000FFF7BCFCB4E71942A9
:1017900012D01A4210D0638D002BF3D123685A68FF
:1017A0009201A9D4E16A094A9142E7D1802259689D
:1017B000D2010A435A609FE7202319429CD01A4263
:1017C00000D199E72000FFF71BFE95E70000FFFF1F
:1017D0008023806A10B502681B0251680B43536076
:1017E0001021FFF78FFC10BD10B5846A11492268E3
:1017F00013680B401360638D002B04D1122120006D
:10180000FFF7B0F913E0636A218D5918638D6162A7
:10181000FF2B0DD9FF232385238D2832A06BFEF7E4
:10182000FDFF0028EAD010212000FFF76BFC10BD5F
:10183000638DF0E7FFBFFFFF10B5846A114A21688E
:101840000B6813400B60638D002B04D11221200024
:10185000FFF788F913E0636A228D9A18638D62623C
:10186000FF2B0DD9FF232385238D2431E06BFEF759
:10187000D5FF0028EAD010212000FFF743FC10BD5F
:10188000638DF0E7FF7FFFFF70B5802503686D0073
:1018900099691A68294206D0140604D50124466CB9
:1018A00034434464DD618025ED00294206D01406EE
:1018B00004D50824466C34434464DD618024A400CC
:1018C000214206D0120604D50222416C0A4342642A
:1018D000DC610B23416C194201D0FFF713FC70BD92
:1018E0000023806A10B5826B9363C26B936303001D
:1018F00041331A78602A04D1403A1A70FFF701FC8C
:1019000010BDFFF7FDFBFBE741300078C0B2704728
:10191000406C7047F0B50400413422780300D2B225
:101920000220202A18D11D0040352E78012E13D018
:101930001B68223020701E68233886431E601E6894
:10194000064F3E401E601E68314319601968084307
:101950001860002022702870F0BDC046FFEFFFFF26
:10196000F0B5050041352A780300D2B20220202AC2
:1019700017D11C0040342678012E12D01B6822306B
:1019800028701E68233886431E601E68054F0902B2
:101990003E403143196019680843186000202A70DE
:1019A0002070F0BDFFF0FFFF10B5104C1049236808
:1019B00002000B4003432360802300209B009A42D7
:1019C0000CD10C4B0C49186806235843FEF7B0FBAA
:1019D0008022431CD2006069104000D110BD002B52
:1019E00001D0013BF7E70320F8E7C0460070004054
:1019F000FFF9FFFF0C00002040420F00F0B504008B
:101A000085B0002802D1012005B0F0BD0368DB07D6
:101A100010D423689B075CD423681B0700D5C2E061
:101A200023685B0700D5F4E0E269002A00D073E187
:101A30000020E9E73822AC4DAB681340EA68102B70
:101A400009D1D243930708D12B689B03E1D5636882
:101A5000002BDED1D7E7082BF6D080226368520234
:101A6000934211D12A6813432B60FEF701FE8026B2
:101A70000700B6022B683342CBD1FEF7F9FDC01B3D
:101A80006428F7D90320BFE7A021C9028B4208D1FF
:101A900080232968DB020B432B602B681A432A60E2
:101AA000E3E72A6891490A402A602A6890490A4077
:101AB0002A60002BD9D1FEF7DBFD80260700B60295
:101AC0002B683342A5D0FEF7D3FDC01B6428F7D99D
:101AD000D8E73823844DAA681340EA68102B29D12F
:101AE00003210A40022A27D12A68520503D5E26859
:101AF000002A00D187E7696862697E4812020140C6
:101B00000A436A60002B0DD12B687B4A134022697F
:101B100013432B602B68794A9B045B0FDA40130058
:101B2000774A1360774B186802F05CFE002800D1FA
:101B300072E768E7002BD7D0E368002B20D02B6832
:101B40006D4A802613402269F60013432B608023E0
:101B50002A685B0013432B60FEF78AFD07002B68A1
:101B6000334207D06A68636962491B020A40134323
:101B70006B6051E7FEF77CFDC01B0228EFD981E7BF
:101B80002B68614A802613402B60FEF771FD070029
:101B9000F6002B68334200D13EE7FEF769FDC01B1B
:101BA0000228F6D96EE738214F4B9A681D000A408B
:101BB000182A08D11B6E9B0700D431E7A369002BBC
:101BC00000D02DE71FE7A2690123002A10D02A6E5A
:101BD000022613432B66FEF74BFD07002B6E3342A4
:101BE00000D01DE7FEF744FDC01B0228F6D949E7E7
:101BF0002A6E02269A432A66FEF73AFD07002B6EEC
:101C0000334200D10CE7FEF733FDC01B0228F6D9A2
:101C100038E73821344B9A681D000A40202A08D141
:101C2000DB6D9B0700D4FFE6A368002B00D0FBE62A
:101C3000E9E68022DB6B5205134200D1F6E0002377
:101C40008027324E009333687F003B4215D0A36853
:101C5000012B22D1EA6D1343EB65FEF709FD022744
:101C60000600EB6D3B4238D0009B012B00D0DBE639
:101C7000EB6B274A1340EB63D6E633683B43336094
:101C8000FEF7F6FC019033683B42E0D1FEF7F0FC32
:101C9000019BC01A0228F6D9F4E6EA6D052B05D19E
:101CA000013B1343EB65EA6D0123D4E701218A432D
:101CB000EA65EA6D03318A43EA65002BCDD1FEF770
:101CC000D7FC02270600EB6D3B42CDD0FEF7D0FCDF
:101CD000104B801B9842F6D9D4E6FEF7C9FC0D4B99
:101CE000801B9842BDD9CDE600100240FFFFFEFFE9
:101CF000FFFFFBFFFF80FFFFFFC7FFFF0024F40093
:101D00000C00002004000020FFFEFFFF00700040D8
:101D1000FFFFFFEF881300003820494B99681D0032
:101D20000140102954D01B6846490B402B60022A01
:101D300037D1FEF79DFC80260700B6042B6833429E
:101D400029D1616A236AEA680B433F490A40134379
:101D5000E26A1343226B1343626B1343A26A80242B
:101D600012021343EB6080232A685B0413432B6049
:101D70008023EA685B051343EB60FEF779FC0600FD
:101D8000A4042B68234200D052E6FEF771FC801BAE
:101D90000228F6D976E6FEF76BFCC01B0228CDD9E7
:101DA00070E60322EB6880249343EB60EB68274ADC
:101DB000A4041340EB60FEF75BFC06002B68234293
:101DC00000D135E6FEF754FC801B0228F6D959E60F
:101DD000012A00D117E6D8680323226A0340934200
:101DE00000D010E67023626A0340934200D00AE6F6
:101DF000FE22A36AD20102401B029A4200D002E6F0
:101E0000F823E26A9B030340934200D0FBE5E02302
:101E1000226B1B050340934200D0F4E5636B400F37
:101E20004007C01A431E9841C0B2EDE5EB6B134367
:101E3000EB63EB6B13400393039B012300E7C04666
:101E400000100240FFFFFFFE8C80C111FFFFFEEE7D
:101E500038231F4A70B591681400194208D1012136
:101E600013681C489B045B0F9940FEF761F970BD35
:101E700091681940082925D091681940102915D179
:101E8000D368D168DB437F22E5684906490F2D0AF4
:101E9000013115409B0707D10F48FEF749F9E1686A
:101EA0006843490F0131E0E70A48F6E791681940B5
:101EB000202909D0926800201340182BD7D1FA208E
:101EC000C001D4E70448D2E780200002CFE7C04633
:101ED000001002400024F40000127A00F7B505005B
:101EE0000E00002801D10120FEBD07274A4C2368BF
:101EF0003B408B422AD329688B073BD4CB0748D47D
:101F0000072723683B409E420AD22368BB433343E2
:101F10002360FEF7ADFB019023683B409E426BD1EE
:101F20002B683E4C5B076FD4FFF792FFA3683C4AD7
:101F30001B051B0F9B009B581F221340D840394B99
:101F40001860394B186802F04DFCCDE72368BB439D
:101F50000B432360FEF78CFB019023683B409E42BD
:101F6000C9D0FEF785FB019BC01A304B9842F4D9CB
:101F70000320B9E7294A4B0704D5E0239068DB0129
:101F80000343936093682A480340A868034393601F
:101F9000B4E76A68214F012A19D13B689B03A2D597
:101FA0000721BB688B431343BB60FEF761FB0190C5
:101FB0003823BA681A406B68DB009A42A0D0FEF75B
:101FC00057FB019BC01A194B9842F1D9D0E7022A5E
:101FD00003D13B689B01E3D485E7002A03D13B682A
:101FE0005B05DDD47FE70223032A03D1396E194252
:101FF000D6D178E7F96DFAE7FEF73AFB019BC01AF4
:102000000A4B984288D9B3E7A3680A4A1340EA68A2
:102010001343A36088E7C04600200240001002403E
:10202000E44900080C000020040000208813000090
:10203000FFF0FFFFFF8FFFFF064B074A9B685B0423
:102040005B0F9B009B581F221340044A1068D84026
:102050007047C04600100240244A00080C000020CF
:10206000072230B5F025094B02609C682D01144011
:1020700044609C682C408460E0249B68E401234019
:10208000C360034B1B6813400B6030BD001002405F
:1020900000200240F0B505002B6885B000209B03AE
:1020A00050D580226F4C5205E36B0090134208D14B
:1020B000E36B1343E363E36B13400393039B01233D
:1020C00000938027684E7F0033683B433360FEF700
:1020D000CFFA019033683B4226D0C023E26D9B00CB
:1020E00013400FD02A6B93420CD0E26D5F4BE16D31
:1020F0001340802252020A43E265E26D5C490A40C5
:10210000E265E365DB0707D5FEF7B2FA02270600B2
:10211000E36D3B4200D19DE0E36D544A0020134043
:102120002A6B1343E36506E0FEF7A2FA019BC01A8F
:102130000228CFD90320009B012B03D1E36B4D4A2A
:102140001340E3632B68DA0706D5032445494A6D3B
:10215000A2436C6822434A659A0706D50C2441497C
:102160004A6DA243AC6822434A659A0606D53D49AA
:10217000414C4A6D2240EC6822434A659A0506D5D7
:1021800038493E4C4A6D2240AC6922434A655A05A3
:1021900006D534493A4C4A6D2240EC6922434A65DF
:1021A0005A0606D52F49374C4A6D22402C692243E6
:1021B0004A655A040FD52B492C6A4A6D9200920841
:1021C00022434A658022D205944204D18022CC6801
:1021D00052022243CA601A0306D5402421494A6D9F
:1021E000A2436C6A22434A659A020FD51D49264EC6
:1021F0004A6DAC6A324022434A658022D20394423F
:1022000004D18022CC6852042243CA605A020DD500
:10221000144C1E4E616DEA6A3140114361658021A4
:1022200049048A4202D1E1680A43E2601B050FD5E6
:102230000C49174C4B6D6A69234013434B6580234F
:10224000DB019A4204D18023CA685B021343CB604E
:1022500005B0F0BDFEF70CFA0E4B801B984200D87B
:1022600056E767E70010024000700040FFFCFFFFE8
:10227000FFFFFEFFFFFFFFEFFFF3FFFFFFFFF3FF97
:10228000FFFFCFFFFFCFFFFFFFFFBFFFFFFFFFFEFF
:10229000FF3FFFFF88130000704700000122036822
:1022A0000748D9681143D96099680140062905D0CB
:1022B0000738814202D019680A431A60002070472B
:1022C000070001007047704770477047022203689B
:1022D00010B51969040011420ED0D96811420BD013
:1022E000053A1A619B69043202779B0700D186E0A8
:1022F000FFF7E9FF002323770422236819691142BD
:1023000011D0D96811420ED0093A1A6107322277EA
:102310009A69C0239B0020001A4200D175E0FFF7A4
:10232000D2FF0023237708222368196911420ED0B7
:10233000D96811420BD0113A1A61DB690D3222774C
:1023400020009B0767D0FFF7BEFF002323771022F2
:1023500023681969114210D0D96811420DD0213A71
:102360001A6119322277DA69C0239B0020001A42D1
:1023700057D0FFF7A8FF00232377012223681969AC
:10238000114207D0D968114204D0033A1A612000E3
:1023900002F05CF9802223681969114208D0D968DB
:1023A000114205D0023AFF3A1A61200000F0AEF85F
:1023B00023681A69D20507D5DA68120604D51C4AC3
:1023C00020001A6100F0A3F8402223681969114225
:1023D00007D0D968114204D0813A1A612000FFF772
:1023E00074FF202223681969114207D0D96811426D
:1023F00004D0413A1A61200000F087F810BDFFF7C1
:1024000061FF2000FFF760FF74E7FFF75BFF20002C
:10241000FFF75AFF85E7FFF755FF2000FFF754FF4E
:1024200093E7FFF74FFF2000FFF74EFFA3E7C046FB
:10243000FFFEFFFF204A10B50368904206D08024BB
:10244000E405A04202D01D4CA0420CD17024A3434D
:102450004C682343904212D08024E405A0420ED061
:10246000164CA0420BD0164CA04208D0154CA042EE
:1024700005D0154CA04202D0144CA04203D1144CFC
:102480002340CC6823438024A3434C692343036047
:102490008B68C3620B688362904208D0094B9842F4
:1024A00005D0094B984202D0084B984201D10B69E4
:1024B00003630123436110BD002C01400004004070
:1024C000002000400040014000440140004801401D
:1024D000FFFCFFFF70B504000120002C14D0250084
:1024E0003D352B78DBB2002B05D122003C32137036
:1024F0002000FFF7D1FE022320682B70211DFFF77B
:1025000099FF012300202B7070BD70477047704702
:10251000F8B504000268C16983680069656E034309
:10252000606903430B4310682B43A44D28400343C9
:1025300013605368A248A34D0340E068034353600F
:10254000A069AA4201D0236A184393689E4E334083
:102550000F2603439360D06A636AB0431843D06286
:102560009A48824217D10320994A526D02409948F5
:10257000805C80221202914200D089E208282BD888
:10258000FDF7CCFD7D032A001A022A004E022A0024
:102590002A002A0051029048824205D10C208C4A20
:1025A000526D02408D48E3E78D48824200D161E3DD
:1025B0008C48824200D15DE31020AA42D9D1C021CB
:1025C0008020834A0901526DC0000A40824200D136
:1025D0009CE00DD8002A4ED00122210001236A314F
:1025E0000B8002390B8000231000E3662367F8BDDF
:1025F0008020000182426ED08A42EDD1002B00D1B2
:10260000C7E0012B00D1C7E0022B00D1C8E0032BAB
:1026100000D1C8E0042B00D1C7E0052B00D1C7E0F2
:10262000062B00D1C6E08021072B00D1C4E0082B87
:1026300000D1F7E0092B00D1F6E00A2B00D1F5E03C
:102640000B2B00D0A6E0033B032062685043884276
:10265000C2D810038842BFD3082B00D9A9E11800C3
:10266000FDF75CFDE600A7013801A7016E01A70197
:10267000A701A7017101FFF7DFFC636A0121002BAD
:1026800021D04918012B1ED00231022B1BD0023160
:10269000032B18D00231042B15D00231052B12D098
:1026A0000231062B0FD00431072B0CD01031082B30
:1026B00009D02031092B06D040310A2B03D07F39B5
:1026C0000B2B00D1FF31FDF733FD00230100002269
:1026D0009142B9D181E7002B59D0012B43D0022B75
:1026E00043D0032B43D0042B43D0052B43D0062BE0
:1026F00043D0072B43D0082B43D0092B43D00A2BC0
:1027000043D00B2B43D1384902239DE7FFF7A0FBB1
:10271000636A0121002B21D04918012B1ED0023100
:10272000022B1BD00231032B18D00231042B15D001
:102730000231052B12D00231062B0FD00431072BAA
:102740000CD01031082B09D02031092B06D0403194
:102750000A2B03D07F390B2B00D1FF31FDF7E8FCAA
:1027600004230100B3E72149CEE721496CE7214961
:10277000CAE72149C8E72149C6E72149C4E72149F9
:10278000C2E72149C0E72149BEE72149BCE7214909
:10279000BAE78021090201E08021C901082353E73B
:1027A00080218901FAE71C49F8E780214901F5E712
:1027B0001A49F3E71A49F1E70901EFE7F369FFCF97
:1027C000FFCFFFFF00800040FFF4FF110038014001
:1027D00000100240B849000800440040BC4900080D
:1027E00000480040004C004024F4000000127A0031
:1027F00000093D00AAB0280080841E00006A18006D
:102800005558140040420F0020A1070090D003004B
:1028100048E801000024F40055150000CC0C00002D
:10282000AA0A0000C9000FE78900B7E74900B5E729
:10283000FFF702FC616A0122002300292ED0022248
:10284000002301292AD004220023022926D00622AF
:102850000023032922D00822002304291ED00A22A3
:10286000002305291AD00C220023062916D0102295
:102870000023072912D02022002308290ED040224D
:10288000002309290AD0802200230A2906D0012228
:1028900000230B2902D18022002352000021FDF7E2
:1028A000BDFD00276568060E0B02334302026E0869
:1028B00092197B41100019002A003B00FDF7AEFD84
:1028C0003A00964B9649C3188B4200D984E6236898
:1028D000D86082E6636A002B30D0012B1AD0022B1D
:1028E0001AD0032B1AD0042B1AD0052B1AD0062B82
:1028F0001AD0072B1AD0082B1AD0092B1AD00A2B62
:102900001AD00B2B1AD187480021002756088019AE
:102910007941D2E78448F7E78448F5E78448F3E74C
:102920008448F1E78448EFE78448EDE78448EBE723
:102930008448E9E78448E7E78448E5E78448E3E733
:10294000FFF786FA76E7636A002B18D0012B19D0BF
:10295000022B1AD0032B1BD0042B1BD0052B1CD011
:10296000062B1CD08020072B1BD0082B1BD0092B3B
:102970001BD00A2B1BD00B2B02D10002C4E78020F6
:102980000004C1E78020C003BEE780208003BBE7CE
:102990007048B9E780204003B6E76F48B4E76F4856
:1029A000B2E70003B0E7C002AEE78002ACE7400246
:1029B000AAE70122002084E7002B2FD0012B19D099
:1029C000022B19D0032B19D0042B19D0052B19D0A9
:1029D000062B19D0072B19D0082B19D0092B19D089
:1029E0000A2B19D00B2B19D15D48636861685B080D
:1029F000181873E14B48F8E75A48F6E75A48F4E7E5
:102A00005A48F2E75A48F0E75A48EEE75A48ECE7E6
:102A10005A48EAE75A48E8E75A48E6E74B48E4E705
:102A2000FFF716FA2DE1002B18D0012B19D0022B3D
:102A30001AD0032B1BD0042B1BD0052B1CD0062B2C
:102A40001CD08020072B1BD0082B1BD0092B1BD0A0
:102A50000A2B1BD00B2B02D14000C6E7802040027E
:102A6000C3E780200002C0E78020C001BDE74648E0
:102A7000BBE780208001B8E74448B6E74448B4E7A4
:102A80004001B2E70001B0E7C000AEE78000ACE76C
:102A9000082800D9EBE0FDF737FB05EA7FEAB3EA47
:102AA000EAEAB600FFF7C8FA636A0121002B21D0D9
:102AB0004918012B1ED00231022B1BD00231032BEF
:102AC00018D00231042B15D00231052B12D002315F
:102AD000062B0FD00431072B0CD01031082B09D056
:102AE0002031092B06D040310A2B03D07F390B2B24
:102AF00000D1FF316568FDF71BFB29006B08C0188A
:102B0000FDF716FB002283B21900224810398142DA
:102B100000D961E52168CB605FE5C04600FDFFFF9D
:102B2000FFFC0F000024F4000000127A0000093DB1
:102B300000AAB0280080841E00006A1800555814AE
:102B40000040420F0020A1070090D0030048E80198
:102B5000000024F40055150000CC0C0000AA0A0067
:102B600048E8010000127A005461510000093D005C
:102B700000D43000AAB0280080841E0040420F001C
:102B800020A1070090D00300AA2A00009819000095
:102B900054150000EFFF0000002B2FD0012B19D09F
:102BA000022B19D0032B19D0042B19D0052B19D0C7
:102BB000062B19D0072B19D0082B19D0092B19D0A7
:102BC0000A2B19D00B2B19D14E48636861685B083A
:102BD000181895E74C48F8E74C48F6E74C48F4E7F6
:102BE0004C48F2E74C48F0E74C48EEE74C48ECE73D
:102BF0004C48EAE74C48E8E74C48E6E74C48E4E74D
:102C0000FFF726F950E7002B18D0012B18D0022B24
:102C100019D0032B1AD0042B1AD0052B1BD0062B4E
:102C20001BD08020072B1AD0082B1AD0092B1AD0C2
:102C30000A2B1AD00B2BC8D00002C6E78020FBE776
:102C40008020C001C1E780208001BEE73948BCE791
:102C500080204001B9E73848B7E73848B5E70001B8
:102C6000B3E7C000B1E78000AFE74000ADE7012265
:102C7000002349E780231B02994200D012E7FFF7A7
:102C8000DBF9636A0121002B21D04918012B1ED0EA
:102C90000231022B1BD00231032B18D00231042B3E
:102CA00015D00231052B12D00231062B0FD0043182
:102CB000072B0CD01031082B09D02031092B06D05E
:102CC00040310A2B03D07F390B2B00D1FF31FDF7A8
:102CD0002FFA6568400029006B08C018FDF728FA34
:102CE00080B20300164A103B934200D974E40F23CC
:102CF00002009A43130000072268400F1843D06077
:102D000000226AE424F4000000127A0000093D0069
:102D1000AAB0280080841E00006A180055581400CC
:102D200040420F0020A1070090D0030048E80100B6
:102D30000024F40055150000CC0C0000AA0A000085
:102D4000EFFF0000836A30B5DA0706D50168284C2A
:102D50004A682240C46A22434A609A0706D501683D
:102D6000244C4A682240046B22434A605A0706D525
:102D70000168214C4A682240446B22434A601A078A
:102D800006D501681D4C4A682240846B22434A6084
:102D9000DA0606D501681A4C8A682240C46B2243C1
:102DA0008A609A0606D50168164C8A682240046C2F
:102DB00022438A605A0610D50168134D4A68446C54
:102DC0002A4022434A6080225203944205D14A6835
:102DD0000E4C2240846C22434A601B0606D50268D2
:102DE0000B4953680B40C16C0B43536030BDC04668
:102DF000FFFFFDFFFFFFFEFFFFFFFBFFFF7FFFFF6A
:102E0000FFEFFFFFFFDFFFFFFFFFEFFFFFFF9FFF72
:102E1000FFFFF7FFF8B504000E0015001F00226841
:102E2000D36933409B1B59424B41AB4201D0002038
:102E30001EE0069B0133F3D0FDF71AFC069BC01B76
:102E4000834201D3002BEAD1220008CA094819683D
:102E5000014019609968A330FF30814399602023B5
:102E6000D36722000832D36700237C3423700230FA
:102E7000F8BDC0465FFEFFFF030073B500260400E7
:102E800088331E60FDF7F4FB236805001B681B07F1
:102E900017D423681B685B070AD580210F4B0022DB
:102EA0000093C9032B002000FFF7B4FF002813D1C3
:102EB00020230020221DD3677C340432D367207086
:102EC0000BE08021054B32000093890303002000B2
:102ED000FFF7A0FF0028DCD0032076BDFFFFFF0135
:102EE00070B5041E01D1012070BD051DEB6F002BD4
:102EF00004D102007C32137001F044FC2423012130
:102F00002268EB67136820008B431360FFF700FB18
:102F10000128E8D0A36A002B02D02000FFF712FF9F
:102F2000236808495A6820000A402A215A609A6892
:102F30008A439A60012219680A431A60FFF79CFFCE
:102F4000D2E7C046FFB7FFFF0123F0B587B002AA62
:102F5000137053709370032202A9CA7002250022D5
:102F6000072604AC8A71CA710E714B71A5700421D9
:102F700007000500083222702271426E6170E17014
:102F80006371A371E3716A376835002A03D13B800E
:102F90002B8007B0F0BD03689A689B6801925B0FB5
:102FA00002AAD05CE15CC000FDF74CF9019B3880BF
:102FB0005B0E1E4002AB985DA15DC000FDF742F9BB
:102FC0002880E6E770B504007C3422780223012AC9
:102FD00010D001260268051D2233EB6711681368C3
:102FE000B3431360044B1940002343661160202251
:102FF000EA672370180070BDFFFFFFDFF8B505001A
:103000007C352B7804000220012B17D02423226862
:103010000138261D2870F36717681368834313600F
:1030200093682000DB00DB0819439160FFF78CFFF9
:10303000236800201F602023F3672870F8BD00007C
:10304000F8B505007C352B7804000220012B17D041
:1030500024230138261D2870F36723681F681A6827
:1030600082431A609A680748024011439960200021
:10307000FFF76AFF236800201F602023F367287092
:10308000F8BDC046FFFFFFF110B500F053FD002072
:1030900010BD7FB50B0046680168028A0825455FB0
:1030A0000024842D00D0EC1C03A801900094300073
:1030B00000F07CFC0023012800D1039B180004B021
:1030C00070BD10B5002800D1013000F051FE002085
:1030D00010BD0300012208334360C3600361002375
:1030E0005242826003607047002303617047436867
:1030F0009A684B608A609A685160996003680861B9
:1031000001330360704703000A6830B50833541C6C
:103110000BD103695A684A6091608B6059600368FB
:1031200008610133036030BD23005C682568AA4252
:10313000FAD2EFE74168826803698A608268516069
:103140005968884200D15A60002202611A68013A27
:103150001A60186870470000002382B00193064B84
:103160001B68013301D072B6FEE772B6019B002BDB
:10317000FCD002B07047C0460800002000000000EC
:103180000B4A13681868203080F30988022080F306
:103190001488BFF36F8F3FBCAE4608BC04BC62B658
:1031A0001847C046C046C046C046C046C046C04696
:1031B000440C002010B58024031F64041C60043BF1
:1031C00019600349043B1960143B40381A6010BD74
:1031D0005931000870470000FF22124B1204196891
:1031E00070B50A431A60FF221968002412060A43C8
:1031F000FA211A600C4D0D4B2C601C600C4B8900A1
:103200001868FCF795FF0B4B0138186007232B60FB
:10321000094B1C60FFF7B4FF00F0C4FDFFF79CFFF3
:10322000200070BD20ED00E010E000E018E000E0BC
:103230000C00002014E000E0080000208022044B75
:1032400052051A60BFF34F8FBFF36F8F7047C046B0
:1032500004ED00E072B6044A136801331360BFF353
:103260004F8FBFF36F8F704708000020054A136827
:10327000002B01D172B6FEE7013B1360002B00D199
:1032800062B6704708000020EFF3108072B67047F6
:1032900080F310887047000000000000000000006C
:1032A000EFF309800E4B1A6820381060F0C04446D6
:1032B0004D4656465F46F0C008B572B600F072FD46
:1032C00062B60CBC116808681030F0C8A046A94668
:1032D000B246BB4680F309882038F0C81847C0467C
:1032E000440C002010B5FFF7CFFF040000F05AFC9B
:1032F000002803D08022034B52051A602000FFF7FC
:10330000C7FF10BD04ED00E010B50F4B1A688242F4
:1033100018D35C681919884203D14168180009194B
:10332000596041684418A24207D1084C2468A2425F
:1033300003D054681268611841600260984200D05E
:10334000186010BD1300E1E73C0C00202C000020A9
:10335000F8B5040000F018FC384A39481368002B0F
:103360001ED138490733194236D0CD189D43C023AA
:103370001B01C9184B1B29000025334ECB18756063
:1033800031600726083BB3431D605D605D1A136022
:1033900028C12E4B1D602E4B1D6080231B06036031
:1033A0000668344216D1002C14D0230007210833BC
:1033B0000B4201D08B430833002B0BD024490D68FE
:1033C000AB4207D820490C686068834207D812686E
:1033D00094420BD1002528E0C0231B01CCE72768CD
:1033E000BC46002FF3D021006446EDE70A681700C1
:1033F00022680A60C21A102A08D9E018410701D0D1
:1034000072B6FEE742606360FFF77EFF6368104AB2
:10341000ED1A15600D4A11688D4200D215601E43E9
:103420003D00002308356660236000F039FC6B071F
:1034300001D072B6FEE72800F8BDC0462C0000207F
:10344000300C0020300000203C0C0020380C002004
:10345000340C002010B500281BD00E4A08384368F1
:10346000126804001A4201D172B6FEE70168002911
:1034700001D072B6FEE79343436000F085FB064A35
:103480006368116820005B181360FFF73DFF00F0D0
:1034900007FC10BD300C0020340C002010B50400D7
:1034A000FFF7D8FEA46BFFF7E1FE6042604110BD5C
:1034B00070B51600026C0400856B002A0AD10668FC
:1034C0001000002E03D1606800F082FD66600135B7
:1034D000A56370BD002E0DD1806801F03BFAA36892
:1034E000226C30009B186268A3609342EFD323687C
:1034F000A360ECE7C06801F02DFA236CE2685B4240
:103500002168D218E2608A4202D26268D318E3606E
:103510000020022EDBD12B005A1E9341ED1AD6E774
:1035200070B505002E004536FFF794FE347864B27E
:10353000002C10DCFF2333702E004436FFF796FE7C
:10354000FFF788FE347864B2002C11DCFF2333705F
:10355000FFF78CFE70BD6B6A002BEBD02800243087
:1035600000F068FC002801D000F0DEFC013CDEE742
:103570002B69002BEAD02800103000F05BFC0028FB
:1035800001D000F0D1FC013CDDE770B504000D0076
:10359000002801D172B6FEE7FFF75CFE216CE36BF9
:1035A00022684B43D0185B1AD318E3602300606095
:1035B000A2600020FF224433A0631A705A70854233
:1035C0000ED12369834207D02000103000F032FC76
:1035D000002801D0FFF732FEFFF748FE012070BD42
:1035E00020001030FFF775FD20002430FFF771FD3B
:1035F000F2E770B506000D00002801D172B6FEE7B3
:10360000080070434830FFF7A3FE041E08D0002DC9
:1036100008D12060E663256401212000FFF7B5FF93
:10362000200070BD030048330360F3E7F0B585B0B8
:103630000400009101921D00002801D172B6FEE73E
:10364000009B002B00D06FE0036C002B00D16BE0DF
:1036500072B6FEE7019E002E03D1FFF707FE0020A1
:1036600054E0002F02D102A800F020FCFFF7FEFD7D
:1036700000F08AFAFFF7EEFD2200443213785BB2C5
:10368000013301D1002313702200453213785BB25D
:10369000013301D100231370FFF7E8FD01A902A84F
:1036A00000F010FC002839D1FFF7D4FDA76BE66BC2
:1036B000FFF7DCFDB7422BD120000199103000F05C
:1036C000A7FB2000FFF72CFF00F0EAFA002801D149
:1036D000FFF7B4FD0127FFF7BDFDA36BE26B93423B
:1036E00001D3022DB6D12A0000992000FFF7E0FE99
:1036F000636A002B03D02000243000F09BFB0028DD
:1037000001D0FFF79BFDFFF7B1FD012005B0F0BD33
:103710002000FFF705FF00F0C3FADBE72000FFF70A
:10372000FFFE00F0BDFA9AE7022D02D1E36B012BF8
:1037300009D100F0FFFB00270028CCD1019F002F0A
:10374000C9D072B6FEE772B6FEE710B502000021DE
:103750000120FFF74EFF041E07D0002141600160E9
:10376000C1600B000A00FFF761FF200010BDF0B53B
:1037700085B0041E019101D172B6FEE7056C002DE3
:1037800001D072B6FEE700F0D5FB002803D1019D01
:10379000002D00D08FE02E000127FFF75BFDA36B0B
:1037A000002B18D0013BA3632368002B02D100F04B
:1037B00081FC60602369002B07D02000103000F0EE
:1037C00039FB002801D0FFF739FDFFF74FFD012538
:1037D000280005B0F0BD019B002B06D1002D01D0C3
:1037E00072B6FEE7FFF742FDF2E7002E02D102A813
:1037F00000F05CFBFFF73AFD00F0C6F9FFF72AFD89
:103800002200443213785BB2013301D100231370DC
:103810002200453213785BB2013301D100231370CB
:10382000FFF724FD01A902A800F04CFB002825D1D8
:103830002000FFF733FE00281AD02368002B07D1A1
:10384000FFF708FD606800F085FB0500FFF70EFD3F
:1038500020000199243000F0DBFA2000FFF760FE21
:1038600000F01EFA002801D1FFF7E8FC3E0094E7C3
:103870002000FFF755FE00F013FAF7E72000FFF7EE
:103880004FFE00F00DFA2000FFF708FE0028EDD0F3
:10389000002D9DD0FFF7DEFC0021636A8B4203D030
:1038A000236B07311B68C91A606800F0C7FB00254D
:1038B000FFF7DCFC8CE772B6FEE70000074A1368EE
:1038C0001968074B002903D1012252421A60704740
:1038D0001268D268D2685268F8E7C046480C0020E7
:1038E000200D0020F8B50400144B154D1E68286803
:1038F0000F000430FFF71EFC631C07D1002F05D01A
:10390000296810480431FFF7F2FBF8BD2B68341921
:103910005C60A64206D90C4B186829680431FFF791
:10392000F2FBF2E7094B186829680431FFF7EBFB5B
:10393000074B1A689442E8D21C60E6E7680D002045
:10394000440C0020400D00204C0C0020480C0020AE
:10395000200D002070B5114C2368002B06D1104BB0
:103960001B68012BF7D9FFF769FCF4E7FFF772FC3E
:103970000C4BDB68DD68281DFFF7DCFB0A4A136887
:10398000013B13602368013B2360FFF76FFC286B4A
:10399000FFF760FD2800FFF75DFDDCE7E00C00208D
:1039A000500C0020540D0020DC0C0020F0B59500D8
:1039B00085B0029028000F000393FFF7C9FC061E94
:1039C00000D18EE05420FFF7C3FC041E00D185E037
:1039D0000723043D066376199E43002300961A00D0
:1039E000F95C3432A154FA5C002A02D00133102B66
:1039F000F5D1230000250A9E43331D70062E00D901
:103A00000626231D1800E6626664A5640193FFF78D
:103A10006BFB20001830FFF767FB07239E1B23007A
:103A200050332461A6616462E564039A1D700299B3
:103A30000098FFF7BFFB0B9B2060002B00D01C60A1
:103A4000FFF708FC2E4B2F4D1A6801321A602A68C6
:103A5000002A49D12C601B68012B1DD12A4E37004A
:103A60008C3730001436FFF734FBB742F9D1274EBC
:103A70003000FFF72EFB264F3800FFF72AFB2548C2
:103A8000FFF727FB2448FFF724FB2448FFF721FB1F
:103A9000234B1E60234B1F60234A136801331360BE
:103AA000224AE36A11688B4200D9136014205843FC
:103AB000154B01991818FFF71AFBFFF7D7FB1C4BA2
:103AC00001261B68002B06D02B68DA6AE36A9A424B
:103AD00001D2FFF7B3FB300005B0F0BD3000FFF7B7
:103AE000B9FC01267642F6E7114B1B68002BD3D1B7
:103AF0002B68E26ADB6A9342CED82C60CCE7C046E2
:103B0000DC0C0020440C0020500C0020F40C0020A1
:103B1000080D0020280D0020540D0020400D00202D
:103B2000480C00204C0C0020EC0C0020F00C002075
:103B30003C0D002013B500240D4B0094019380220E
:103B400023000C490C48FFF731FF01280BD172B656
:103B500001220A4B52421A60094B1860094B1C6043
:103B6000FFF73AFB13BD431CFCD172B6FEE7C0461B
:103B70001C0D0020C949000855390008200D0020FF
:103B80003C0D0020680D0020024A136801331360C9
:103B90007047C046E80C0020014B18687047C046CB
:103BA000680D0020334BF7B51B68002B35D1324B25
:103BB0001C6801341C60002C11D1304B1A6812684B
:103BC000002A01D072B6FEE72D4A19681068186005
:103BD00011602C4A136801331360FFF76FFE2A4F00
:103BE00000263B689C4207D3244B1A681268002ABF
:103BF00019D101235B423B60244B1B68DA6A142312
:103C00005343234AD358012B00D90126214B1B686B
:103C1000002B00D001263000FEBD1F4A002613688D
:103C200001331360F2E71B68DB68DD686B689C4258
:103C3000E1D32B1D18000193FFF77CFAAB6A002B30
:103C400003D028001830FFF775FA144BE86A1A6899
:103C5000904200D91860142358430D4B291D1818A1
:103C6000FFF745FA094BEA6A1B68DB6A9A42BBD345
:103C70000126B9E7E80C0020680D0020480C002060
:103C80004C0C0020240D0020200D0020440C0020AE
:103C9000500C00206C0D0020E40C0020F00C0020E3
:103CA000F8B52B4C2368002B01D172B6FEE7FFF765
:103CB000D1FA2368013B23602468002C04D000243F
:103CC000FFF7D4FA2000F8BD224B1B68002BF6D07A
:103CD00014260127204B1A68002A1AD1002C01D083
:103CE000FFF7ECFD1D4D2C68002C0AD00126FFF7D4
:103CF00059FF002801D01A4B1E60013C002CF6D160
:103D00002C60174B1B68002BD9D0FFF797FA0124C2
:103D1000D6E7DB68DC682000251D1830FFF70AFABB
:103D20002800FFF707FA0F4BE06A1A68904200D9A3
:103D3000186070430C4B29001818FFF7D8F90B4B8B
:103D4000E26A1B68DB6A9A42C4D3054B1F60C1E775
:103D5000E80C0020DC0C0020280D0020E40C0020E2
:103D60006C0D0020F00C0020500C0020440C0020B2
:103D700070B5041E02D1FFF761FA70BD084B1D68D3
:103D8000002D01D072B6FEE7FFF7FEFE29002000ED
:103D9000FFF7A8FDFFF784FF0028EED1EBE7C04650
:103DA000E80C0020154B30B51A68154B002A02D0DC
:103DB00001221A6030BD142512481A6002681249A7
:103DC0002B0053435C58002C12D0CC186568083384
:103DD0006D68CB1865609D4201D16B6863601423E8
:103DE0005343C9184B68D968084B19600260E1E772
:103DF000002A01D172B6FEE7013AE1E7E80C0020A3
:103E00006C0D0020F00C0020500C0020440C002011
:103E100010B50C00002801D172B6FEE7044B1968FA
:103E20001831FFF770F901212000FFF75BFD10BD8D
:103E3000440C0020C36870B5DC68002C01D172B658
:103E4000FEE7250018352800FFF774F9114B1B68B1
:103E5000002B1BD1251D2800FFF76CF90E4AE36AE1
:103E600011688B4200D913601420290043430B488A
:103E7000C018FFF73CF90A4BE26A1B680020DB6AB6
:103E80009A4202D9074B0130186070BD29000648DC
:103E9000EFE7C046E80C0020F00C0020500C00209A
:103EA000440C00206C0D0020280D0020034B1B68E3
:103EB0000360034B1B6843607047C046240D00201D
:103EC000680D002070B505000C00002801D172B605
:103ED000FEE7002901D172B6FEE7FFF7BBF9104BF0
:103EE00069681A6823680026581C10D00D482E688F
:103EF0000068864202D001268A4208D2521A9A42AB
:103F000009D29B1A23602800FFF7D0FF0026FFF795
:103F1000ADF9300070BD002301262360F7E7C046ED
:103F2000680D0020240D00200122014B1A6070470B
:103F30006C0D0020054B01201B68002B04D0044BA6
:103F400018684342584140007047C0463C0D00206D
:103F5000E80C0020F8B5041E2ED01A4DC16A2B685B
:103F6000DB6A994222D28369002B04DB07222B688B
:103F7000DB6AD21A826114234B43134F6269FB1828
:103F80009A421AD1261D3000FFF7D4F82B680F4A49
:103F9000DB6A1168E3628B4200D913601420584336
:103FA00031003818FFF7A3F8012005E02B68406CBA
:103FB000DB6A984280414042F8BD2B68DB6AE362CD
:103FC000F2E7C046440C0020500C0020F00C00200A
:103FD00070B5041E01D1002070BD154B1B689842BE
:103FE00001D072B6FEE7836C002B01D172B6FEE7FA
:103FF000C26A416C013B83648A42ECD0002BEAD157
:10400000051D2800FFF796F80723606C1B1AA361B3
:10401000084BE0621A68904200D9186014234343A9
:1040200005482900C018FFF762F80120D4E7C04610
:10403000440C0020F00C0020500C002070B5041E31
:1040400031D0836C002B01D172B6FEE7426C8A42FC
:1040500000D20A00E06A904225D0012B23D1124BF6
:104060001B689C4201D172B6FEE7A369E262002B95
:1040700002DB07218A1AA261142343430B4E6269B3
:10408000F3189A420FD1251D2800FFF753F8084A6C
:10409000E36A11688B4200D9136014205843290049
:1040A0003018FFF724F870BD440C0020500C00209D
:1040B000F00C0020044B1A68002A03D019688A6C9F
:1040C00001328A6418687047440C0020F7B50191EA
:1040D0009621184D009049002868FFF748FB0128F9
:1040E00027D1FA267600FFF757FD0700124C019BF7
:1040F000009AD6212000FCF7EFFD002804D0FFF73E
:104100004BFDC01BB042F1D92000FDF7FDFB20287C
:1041100004D0FFF741FDC01BB042F5D92000FDF7E8
:10412000F7FB0428DFD0002328681A001900FFF7E6
:104130007DFAF7BD2C0F0020F80D0020F7B5019196
:104140009621184D009049002868FFF710FB0128C0
:1041500027D1FA267600FFF71FFD0700124C019BBE
:10416000009AD6212000FCF753FE002804D0FFF768
:1041700013FDC01BB042F1D92000FDF7C5FB20287C
:1041800004D0FFF709FDC01BB042F5D92000FDF7B0
:10419000BFFB0428DFD0002328681A001900FFF7AE
:1041A00045FAF7BD2C0F0020F80D002007B501AB34
:1041B0000A781870022118005A70FFF787FF07BDB0
:1041C00007B501AB18705970180003219A70FFF7FA
:1041D0007DFF07BD37B56B4615000C00D87107335E
:1041E00018000121FFF772FF29002000FFF7A6FF4A
:1041F00037BD07B56B460122991D2E20FFF7EAFF58
:104200006B462F200122D91DFFF7E4FF01200EBDD0
:1042100013B501AC022221002020FFF7DBFF0422AE
:1042200063781340024A00D00123537013BDC04687
:10423000780D002007B56B46D91D57233A200B7027
:10424000FFF7B4FF07BD000073B56B469C1D6023EC
:1042500021003B2023704025FFF7A8FF23782B4047
:1042600035D16A46C825D41DD371210001222C20E6
:10427000FFF7B0FF23786D016B43194A194E9B1865
:10428000210001222D20F360FFF7A4FF2378144AB8
:104290006B4321009B18292001223361FFF79AFF0D
:1042A000237821006B4301222B207361FFF792FFDB
:1042B00022780D4B2100534327200122B361FFF7E1
:1042C00089FF23785D43094BED18B56073BD50201D
:1042D000FFF74EFD012221003B20FFF77BFFBDE7EA
:1042E00000650400780D00208813000000E204003F
:1042F00010B50022012800D00122802102480901C6
:10430000FCF706FC10BDC0460004005010B5262284
:104310000E210020FFF754FF10BD0000084B10B520
:10432000984200D91800074BD861002800D08009B6
:1043300082088001C1B2D2B20220FFF741FF10BD56
:1043400070170000780D002037B56B460138D91D75
:10435000032803D8FBF7D8FE0F14191E00240423EA
:1043600025000B700D20FFF721FF2A0021000420FB
:10437000FFF726FF37BD0B2360240B701025F1E7F4
:104380001623D0240B702025ECE7212330240B705A
:104390003125E7E72C23A0240B704125E2E700003C
:1043A00010B50420FFF7D0FF0348FFF7B7FF002048
:1043B000FFF79EFF10BDC046B80B0000802110B56E
:1043C000002209010C48FCF7A3FB002201210A4846
:1043D000FCF79EFBFFF70DFF084B1870FFF796FFE9
:1043E000FFF728FFFFF714FFFFF72EFFFFF7D8FFB7
:1043F000FA20FFF7BDFCF5E700040050780D00201F
:1044000010B50120FEF75DFEFBE730B5A1B0382204
:10441000002112A800F0A7FA1022002101A800F044
:10442000A2FA3422002105A800F09DFA8020800025
:10443000FDF7BAFA80235B001593C03B1793383B16
:104440001C9380239B021D9380239B041E93802337
:10445000002402259B0512A81F9312951694199506
:104460001A951B94FDF7CAFA0723290001A80193A6
:10447000029503940494FDF731FD602305A805938C
:1044800008940994FDF706FE21B030BDF0B593B055
:10449000FCF7CEF8FFF7B9FF0421012702245D4D98
:1044A0000DAE6A6B30000A436A636B6B0B4001937D
:1044B000019B6A6B1C310A436A636B6B14220B40CD
:1044C0000293029B6B6B00213B436B636B6B3B4026
:1044D0000393039B6B6B23436B636B6B23400493CE
:1044E000049B00F040FA08216B6B4B483B436B6325
:1044F0006B6B3B400593059B6B6B23436B636B6B53
:104500001C400694069B6A6B444C0A436A636B6BBF
:1045100000220B4007932100079BFCF7F9FA0D944A
:10452000002431003C487760B460F460FCF748FA3E
:104530003B4B310038480D937460B460FCF740FA8F
:10454000AB6B22003B43AB63AB6B21003B40009362
:104550000B20009BFCF792F80B20FCF7BFF8314DC5
:10456000314B28002B60314BAC606B60EF602C61ED
:104570006C61AC61EC612C62FCF758FB21002800F7
:10458000FDF7C8F921002800FDF7EAF9284D294B6D
:1045900028002B60284BEC606B6080235B05AB60D0
:1045A0000C232C616B61AC612C626C62AC626C663A
:1045B000FEF796FC21002800FEF720FD21002800D0
:1045C000FEF73EFD2800FEF7FDFC3800FFF7BDF8C2
:1045D0001A4B1860A04201D172B6FEE708A803008A
:1045E000174AA2CAA2C322CA22C32100FEF751FD64
:1045F0003200144B124D186014350BCD0BC2300035
:104600000ACD0AC22100FEF744FD0F4B1860FEF7E9
:104610003BFDFEE7001002400004005001080000CE
:1046200002100000F80D002000540040BC7D701006
:10463000440E002000800040243303002C0F002093
:1046400090490008980D0020740D00208023026816
:1046500010B5DB059A4201D1FBF7FEFF10BD704794
:1046600007B501200B4B196C0143196480211A6CAA
:10467000490502400092009ADA6B03380A43DA6374
:10468000DB6B00220B4001930321019BFBF7F6FF3C
:1046900007BDC0460010024030B5050089B01422A5
:1046A000002103A800F05FF92F4B2A689A4258D1E5
:1046B00002212E4C2E48626B0A436263636B0B40EF
:1046C0000193019BC0230393AE3B0493113B0593DD
:1046D00003A905330793FCF773F98021E26B890383
:1046E0000A43E263E36B234C0B400293029B224B91
:1046F000802223600B2363600533A3600023E36003
:104700006361A361E361802320009B012261236236
:10471000FCF728F8002801D0FFF7A1FF174BAC6386
:10472000A562174C802223600A2363600023A360E4
:10473000E3606361A361E361802320009B01226148
:104740002362FCF70FF8002801D0FFF788FF17203D
:10475000EC6300220321A562FBF790FF1720FBF713
:10476000BDFF09B030BDC0460054004000100240FB
:10477000000400509C0D00204400024058000240FC
:10478000D00E002010B5040088B01422002103A828
:1047900000F0E9F8114B22689A421CD18020104B9E
:1047A0004003D96B0143D9630121DA6B02400192C6
:1047B000019A5A6BA0200A435A635B6BC0050B40F9
:1047C0000293029B0C2303930A3B049303A9043333
:1047D0000793FCF7F5F808B010BDC0460080004014
:1047E0000010024030B5012587B0010000220F20E3
:1047F000FBF744FF0F20FBF771FF144B6946DA6BA0
:1048000002A82A43DA63DB6B2B400193019BFDF77F
:1048100027FCFDF711FC80230D4CDB0523600D4BBD
:104820000D49E360FBF784FC002301386060200041
:104830002361A360FDF74EFE03002800002B02D188
:104840002000FDF72BFD07B030BDC0460010024030
:10485000300F0020E703000040420F007047FEE7E2
:1048600010B50348FCF758F80248FCF755F810BD9E
:104870009C0D0020D00E002010B50248FDF726FD4B
:1048800010BDC046300F0020064810B503689A6975
:10489000E023DB001A4202D0FCF7F6FF10BDFCF764
:1048A00055FBFBE7F80D00208022024B12059A60B1
:1048B0007047C04600ED00E00D488546002103E04A
:1048C0000C4B5B58435004310B480C4B42189A4236
:1048D000F6D30B4A02E0002313600432094B9A42DC
:1048E000F9D3FFF7E1FF00F011F8FFF7CFFDFEE786
:1048F00000900020544A0008000000201000002012
:1049000010000020700F0020FEE7000070B50026A8
:104910000C4D0D4C641BA410A64209D1002600F0DA
:104920002BF80A4D0A4C641BA410A64205D170BD99
:10493000B300EB5898470136EEE7B300EB589847C1
:104940000136F2E74C4A00084C4A00084C4A00087D
:10495000504A0008002310B59A4200D110BDCC5C2B
:10496000C4540133F8E703008218934200D1704722
:1049700019700133F9E70000F8B5C046F8BC08BC6F
:104980009E467047F8B5C046F8BC08BC9E467047C6
:10499000D8490008014400080000000000000000A1
:1049A00080000000CE490008BD430008040000005C
:1049B00000000000000100000004020800101010B8
:1049C00004101010021010100849444C4500726584
:1049D00067756C61746F720064656661756C7454A0
:1049E00061736B0000000000000000000000000088
:1049F00000000000000000000000000000000000B7
:104A000000000000010000000200000003000000A0
:104A1000040000000600000007000000080000007D
:104A2000090000000000000000000000000000007D
:104A30000000000001000000020000000300000070
:044A4000040000006E
:084A440018BAFF7F0100000019
:044A4C00E900000875
:044A5000C100000899
:104A54000100000004000000AAAAAAAA0024F4008D
:04000005080048B9EE
:00000001FF
